:100000000C942C080C9473080C9473080C947308CB
:100010000C9473080C9473080C9473080C94730874
:100020000C9473080C9473080C9438220C940B23D2
:100030000C94A4190C9473080C9473080C94730812
:100040000C9473080C9473080C9473080C94730844
:100050000C9473080C940C1A0C9473080C94730889
:100060000C9473080C9473080C9473080C94730824
:100070000C9473080C9473080C9473080C94730814
:100080000C9473080C9473080C9473080C94730804
:100090000C9473080C9473080C9473080C947308F4
:1000A0000C9473080C9473080C947308520001515B
:1000B0002D0000002E00230022000000000035006B
:1000C000E000015100000000510000002700260060
:1000D00025002400210020001F001E000000000059
:1000E000000000004F000000130012000C00180078
:1000F000150008001A0014000000000000000000B5
:10010000E70000002F00500030001C001700000026
:1001100000002B000000E10000002A00E3000000C6
:1001200033000F000E000D00090007001600040048
:10013000000000000000310000000000340000005A
:1001400000000B000A000000000029000000000071
:10015000E200000036000000000037000000100040
:10016000190006001B001D000000E500000028002B
:100170000000000038000000000011000500000031
:100180000000000000000000E2002C004B00010015
:100190004400000045003F003E00000000004C000D
:1001A00001000100000000004E000000430042007A
:1001B000410040003D003C003B003A0000000000D0
:1001C000000000004D00000048004700460001000C
:1001D000010001000100010000000000000000001B
:1001E0000100000052004A0001000100010000006F
:1001F000000039000000010000004C000100000078
:1002000050004A000100010001000100010001004E
:100210000000000000004900000000004F00000046
:10022000000001000100000000000070000000005C
:10023000010000000100000000004D00000001006E
:1002400001000100010001000000010000000100A8
:10025000000000005100000000000100010000004B
:10026000000000000000000001000100010001008A
:100270000100000001000100010000000000010079
:100280000100010000000000010000000100010069
:100290000100010001000100010001000000000058
:1002A0000000000001000000010001000100010049
:1002B000010001000100010000000000000000003A
:1002C0000100000001000100010001000100000028
:1002D000000001000000010000000100010000001A
:1002E0000100010001000100010001000100010006
:1002F00000000000000001000000000001000000FC
:1003000000000100010000000000010000000000EA
:1003100001000000010000000000010000000100D9
:1003200001000100010001000000010000000100C7
:1003300000000000010000000000010001000000BA
:1003400000000000000000000100010001000100A9
:100350000100000001000100010000000000010098
:100360000100010000000000010000000100010088
:100370000100010001000100010001000000000077
:100380000000000001000000010001000100010068
:100390000100010001000100000000000000000059
:1003A0000100000001000100010001000100000047
:1003B0000000010000000100000001000100000039
:1003C0000100010001000100010001000100010025
:1003D000000000000000010000000000010000001B
:1003E000000001000100000000000100000000000A
:1003F00001000000010000000000010000000100F9
:1004000001000100010001000000010000000100E6
:1004100000000000010000000000010001000000D9
:1004200000000000000000000100010001000100C8
:1004300001000000010001000100000000000100B7
:1004400001000100000000000100000001000100A7
:100450000100010001000100010001000000000096
:100460000000000001000000010001000100010087
:100470000100010001000100000000000000000078
:100480000100000001000100010001000100000066
:100490000000010000000100000001000100000058
:1004A0000100010001000100010001000100010044
:1004B000000000000000010000000000010000003A
:1004C0000000010001000000000001000000000029
:1004D0000100000001000000000001000000010018
:1004E0000100010001000100000001000000010006
:1004F00000000000010000000000010001000000F9
:1005000000000000000000000100010001000100E7
:1005100001000000010001000100000000000100D6
:1005200001000100000000000100000001000100C6
:1005300001000100010001000100010000000000B5
:1005400000000000010000000100010001000100A6
:100550000100010001000100000000000000000097
:100560000100000001000100010001000100000085
:100570000000010000000100000001000100000077
:100580000100010001000100010001000100010063
:100590000000000000000100000000000100000059
:1005A0000000010001000000000001000000000048
:1005B0000100000001000000000001000000010037
:1005C0000100010001000100000001000000010025
:1005D0000000000001000000000001000100000018
:1005E0000000000000000000010001000100010007
:1005F00001000000010001000100000000000100F6
:1006000001000100000000000100000001000100E5
:1006100001000100010001000100010000000000D4
:1006200000000000010000000100010001000100C5
:1006300001000100010001000000000000000000B6
:1006400001000000010001000100010001000000A4
:100650000000010000000100000001000100000096
:100660000100010001000100010001000100010082
:100670000000000000000100000000000100000078
:100680000000010001000000000001000000000067
:100690000100000001000000000001000000010056
:1006A0000100010001000100000001000000010044
:1006B0000000000001000000000001000100000037
:1006C0000000000000000000010001000100010026
:1006D0000100000001000100010000000000010015
:1006E0000100010000000000010000000100010005
:1006F00001000100010001000100010000000000F4
:1007000000000000010000000100010001000100E4
:1007100001000100010001000000000000000000D5
:1007200001000000010001000100010001000000C3
:1007300000000100000001000000010001000000B5
:1007400001000100010001000100010001000100A1
:100750000000000000000100000000000100000097
:100760000000010001000000000001000000000086
:100770000100000001000000000001000000010075
:100780000100010001000100000001000000010063
:100790000000000001000000000001000100000056
:1007A0000000000000000000010001000100010045
:1007B0000100000001000100010000000000010034
:1007C0000100010000000000010000000100010024
:1007D0000100010001000100010001000000000013
:1007E0000000000001000000010001000100010004
:1007F00001000100010001000000000000000000F5
:1008000001000000010001000100010001000000E2
:1008100000000100000001000000010001000000D4
:1008200001000100010001000100010001000100C0
:1008300000000000000001000000000001000000B6
:1008400000000100010000000000010000000000A5
:100850000100000001000000000001000000010094
:100860000100010001000100000001000000010082
:100870000000000001000000000001000100000075
:100880000000000000000000010001000100010064
:100890000100000001000100010000000000010053
:1008A0000100010000000000010000000100010043
:1008B0000100010001000100010001000000000032
:1008C0000000000001000000010001000100010023
:1008D0000100010001000100000000000000000014
:1008E0000100000001000100010001000100000002
:1008F00000000100000001000000010001000000F4
:1009000001000100010001000100010001000100DF
:1009100000000000000001000000000001000000D5
:1009200000000100010000000000010000000000C4
:1009300001000000010000000000010000000100B3
:1009400001000100010001000000010000000100A1
:100950000000000001000000000001000100000094
:100960000000000000000000010001000100010083
:100970000100000001000100010000000000010072
:100980000100010000000000010000000100010062
:100990000100010001000100010001000000000051
:1009A0000000000001000000010001000100010042
:1009B0000100010001000100000000000000000033
:1009C0000100000001000100010001000100000021
:1009D0000000010000000100000001000100000013
:1009E00001000100010001000100010001000100FF
:1009F00000000000000001000000000001000000F5
:100A000000000100010000000000010000000000E3
:100A100001000000010000000000010000000100D2
:100A200001000100010001000000010000000100C0
:100A300000000000010000000000010001000000B3
:100A400000000000000000000100010001000100A2
:100A50000100000001000100010000000000010091
:100A60000100010000000000010000000100010081
:100A70000100010001000100010001000000000070
:100A80000000000001000000010001000100010061
:100A90000100010001000100000000000000000052
:100AA0000100000001000100010001000100000040
:100AB0000000010000000100000001000100000032
:100AC000010001000100010001000100010001001E
:100AD0000000000000000100000000000100000014
:100AE0000000010001000000000001000000000003
:100AF00001000000010000000000010000000100F2
:100B000001000100010001000000010000000100DF
:100B100000000000010000000000010001000000D2
:100B200000000000000000000100010001000100C1
:100B300001000000010001000100000000000100B0
:100B400001000100000000000100000001000100A0
:100B5000010001000100010001000100000000008F
:100B60000000000001000000010001000100010080
:100B70000100010001000100000000000000000071
:100B8000010000000100010001000100010000005F
:100B90000000010000000100000001000100000051
:100BA000010001000100010001000100010001003D
:100BB0000000000000000100000000000100000033
:100BC0000000010001000000000001000000000022
:100BD0000100000001000000000001000000010011
:100BE00001000100010001000000010000000100FF
:100BF00000000000010000000000010001000000F2
:100C000000000000000000000100010001000100E0
:100C100001000000010001000100000000000100CF
:100C200001000100000000000100000001000100BF
:100C300001000100010001000100010000000000AE
:100C4000000000000100000001000100010001009F
:100C50000100010001000100000000000000000090
:100C6000010000000100010001000100010000007E
:100C70000000010000000100000001000100000070
:100C8000010001000100010001000100010001005C
:100C90000000000000000100000000000100000052
:100CA0000000010001000000000001000000000041
:100CB0000100000001000000000001000000010030
:100CC000010001000100010000000100000001001E
:100CD0000000000001000000000001000100000011
:100CE0000000000000000000010001000100010000
:100CF00001000000010001000100000000000100EF
:100D000001000100000000000100000001000100DE
:100D100001000100010001000100010000000000CD
:100D200000000000010000000100010001000100BE
:100D300001000100010001000000000000000000AF
:100D4000010000000100010001000100010000009D
:100D5000000001000000010000000100010000008F
:100D6000010001000100010001000100010001007B
:100D70000000000000000100000000000100000071
:100D80000000010001000000000001000000000060
:100D9000010000000100000000000100000001004F
:100DA000010001000100010000000100000001003D
:100DB0000000000001000000000001000100000030
:100DC000000000000000000001000100010001001F
:100DD000010000000100010001000000000001000E
:100DE00001000100000000000100000001000100FE
:100DF00001000100010001000100010000000000ED
:100E000000000000010000000100010001000100DD
:100E100001000100010001000000000000000000CE
:100E200001000000010001000100010001000000BC
:100E300000000100000001000000010001000000AE
:100E4000010001000100010001000100010001009A
:100E50000000000000000100000000000100000090
:100E6000000001000100000000000100000000007F
:100E7000010000000100000000000100000001006E
:100E8000010001000100010000000100000001005C
:100E9000000000000100000000000100010000004F
:100EA00000000000000000000100010012036B00C0
:100EB0006500790062006F0061007200640000004C
:100EC000160371006D006B006200750069006C0014
:100ED00064006500720000000403090409026D004B
:100EE000040100A0FA090400000103010100092126
:100EF000110100012240000705810308000A0904CE
:100F000001000103010200092111010001224D002D
:100F10000705820308000A0904020001030000001B
:100F20000921110100012236000705830308000A88
:100F3000090403000103000000092111010001223E
:100F40003900070584032000011201100100000090
:100F500008EDFE606001000102000105010906A123
:100F600001050719E029E71500250195087501819C
:100F7000020508190129059505750191029501756C
:100F80000391010507190029F71500250195F8754A
:100F9000018102C005010980A10185021601002618
:100FA00003001A81002A8300751095018100C00595
:100FB0000C0901A1018503160100269C021A0100FB
:100FC0002A9C02751095018100C005010902A1014A
:100FD0000901A1000509190129051500250195053B
:100FE00075018102950175038101050109300931FF
:100FF0001581257F95027508810609381581257FA1
:10100000950175088106050C0A38021581257F9522
:101010000175088106C0C005010906A1010507196F
:10102000E029E715002501950875018102950175F4
:101030000881010508190129059505750191029599
:1010400001750391010507190029FF150026FF000E
:10105000950675088100C00011241FBECFEFDAE0AD
:10106000DEBFCDBF04B603FE27C08091760290910B
:101070007702A0917802B09179028730904BA74017
:10108000B04BD1F41092760210927702109278024F
:101090001092790214BE84B7877F84BF0FB6F8948C
:1010A000A895809160008861809360001092600034
:1010B0000FBEE0E0FFE3099511E0A0E0B1E0EEE94A
:1010C000FCE402C005900D92AE33B107D9F722E0DF
:1010D000AEE3B1E001C01D92A637B207E1F70E946E
:1010E000871F0C944D260C94000090E080E008953A
:1010F0000895089581E00895089581E008950C947D
:101100007A080E941D122FEF84E39CE0215080405A
:101110009040E1F700C000000C94311AFF920F9349
:101120001F93CF93DF938C01FC01C081D18180910B
:101130008A0181113FC082818823B9F1CE010E94CA
:101140008417F82E682FCE010E942A17BE018F2D1A
:101150000E94D509EC01B8010E947F08882309F498
:101160004AC0B801CE010E94E50B882309F443C0B0
:10117000C531F0E7DF0718F5C23080E7D80708F07F
:101180004BC0C115E0E7DE0789F1C130D047D1F18E
:1011900081E08093400180934101C801DF91CF91AC
:1011A0001F910F91FF900C947D08CE010E9459175A
:1011B000F82ECCCFCE010E948417BE01C9CFCC330C
:1011C00080E7D80709F4ACC0CD33D04709F7F80160
:1011D0008281882309F4CBC0109241010E94D61964
:1011E00090933F0180933E0180E2A7C0F801828185
:1011F00081110E94810880E0DF91CF911F910F91B2
:10120000FF900895F80182818823A9F38091360226
:10121000816080933602EFCFF8018281882309F440
:10122000BCCF0E943519811102C00E941B190E9477
:10123000521990E09093680280936702FE01E35098
:10124000F047809167028160E231F105C8F4E55D05
:10125000F64F0C94FD253D0949094D0951095509E1
:1012600059095D096109650969096D0971097509FE
:1012700079097D0981098509890980916702826060
:1012800080936702809167020E9456190E941D1286
:10129000B2CF809167028460F3CF8091670288604B
:1012A000EFCF809167028061EBCF8091670280620F
:1012B000E7CF809167028064E3CF80916702806806
:1012C000DFCF809167028460EACF809167028E7FD2
:1012D000D7CF809167028D7FD3CF809167028B7FBC
:1012E000CFCF80916702877FCBCF809167028F7EBF
:1012F000C7CF809167028F7DC3CF809167028F7BBC
:10130000BFCF809167028F77BBCF809167028B7FC1
:10131000EACF90916702892F97FB87F98058B0CF69
:10132000F8018281882361F0109240010E94D61951
:1013300090933F0180933E0182E00E94A70F5BCF14
:101340008091400181110FC080913E0190913F0139
:101350000E94E219883C910530F486E20E947C0EDE
:1013600086E20E94580F82E00E94AE0F44CF809127
:10137000410181110FC080913E0190913F010E9477
:10138000E219883C910530F487E20E947C0E87E2E6
:101390000E94580F80E2E8CF0C94340C0C94360C69
:1013A0000C947C080C94D0090895972F70E02EE0DF
:1013B000929F600D711D1124FB0190E7899FE00D44
:1013C000F11D1124EE0FFF1FE455FF4F85919491FD
:1013D0000895FC01EE0FFF1FE455F14F85919491A4
:1013E00008950E94D5090E94640B811520E492079C
:1013F00008F08DC0811540E3940708F0E8C0803EF6
:10140000910508F071C0803C910508F0CCC0883A85
:10141000910580F4853A910508F0CAC081309105A4
:1014200009F46EC020F08430910508F069C090E0A6
:1014300080E008958D3B9105D0F7883A910509F435
:1014400004C1893A910509F403C18A3A910509F466
:1014500002C18B3A910509F401C18C3A910509F456
:1014600000C18B3B910509F4FFC08C3B910509F449
:10147000FEC08D3A910509F4FDC0803B910509F449
:10148000FCC08E3A910509F4FBC08F3A910509F42E
:10149000FAC0813B910509F4F9C0823B910509F43A
:1014A000F8C0833B910509F4F7C0843B910509F42A
:1014B000F6C0853B910509F4F5C0863B910509F41A
:1014C000F4C0873B910509F4F3C0883B910509F40A
:1014D000F2C0893B910509F4F1C08A3B910509F4FA
:1014E000F0C080E094E408958F3F910509F048F43E
:1014F000803F910508F067C0883E910508F097CFBE
:101500000895811520E2920708F05FC008958115C3
:1015100043E5940760F5811522E5920708F062C063
:10152000811541E5940708F058C0811520E5920720
:1015300008F450C09C0154E0369527955A95E1F780
:10154000922F9370482F437021E030E002C0220FA9
:10155000331F4A95E2F73C68392B86958695837050
:1015600040E2849FC0011124822B932B08958115A2
:1015700045E5940750F4811524E5920708F446C028
:10158000982F8827846F906A0895811546E59407FF
:1015900008F450C09C0130569F702115304108F06E
:1015A00046CF90620895805C91090E94E9090895F0
:1015B000853A910509F443C0863A910509F042C085
:1015C00082E890E40895906508959F70EECF992782
:1015D000906C08959F70906A0895982F8827816F66
:1015E000906A0895AC014370552721E030E002C0B5
:1015F000220F331F4A95E2F78695869540E2849F35
:10160000C0011124822B932B9C680895AC01437078
:10161000552721E030E002C0220F331F4A95E2F740
:101620008695869540E2849FC0011124822B932BDE
:101630009A680895982F882788279F71B2CF81E8EC
:1016400090E4089583E890E4089582EE94E4089588
:1016500089EE94E408958AEE94E4089585EB94E489
:10166000089586EB94E4089583EB94E4089584EB65
:1016700094E4089587EB94E408958CEC94E4089541
:101680008DEC94E4089583E895E408958AE895E460
:10169000089582E995E4089584E995E4089581E246
:1016A00096E4089583E296E4089584E296E408952A
:1016B00085E296E4089586E296E4089587E296E44A
:1016C00008958AE296E41CCF8238910549F1B0F47E
:1016D0008133910509F45CC048F48932910509F41D
:1016E00052C08A32910509F458C008958533910596
:1016F00009F444C08933910599F00895833E91051A
:1017000031F138F4803E910591F0823E9105B1F0BF
:101710000895863E910511F1873E910541F10895A6
:10172000209167022370C9F080EE90E00895209127
:10173000670220FF12C089E390E0089520916702BC
:1017400022FF0BC024FF2EC090E080E0089520917E
:10175000670222FD2AC024FDF7CF08952091670279
:1017600023FFFBCF24FDF0CF87EE90E0089520917A
:10177000670223FFF0CF86EE90E008952091670284
:1017800025FD16C008952091670225FD14C0089517
:101790002091670226FD12C008952091670226FD60
:1017A00010C0089583EE90E0089582EE90E00895D1
:1017B00089E290E0089585E390E008958AE290E060
:1017C000089581E390E0C9CF08950F931F93CF93BD
:1017D0008C01FB018281811106C0C1E08C2FCF9169
:1017E0001F910F910895C0914F01C11125C005317E
:1017F000104799F70E94E40B81E080934F010E940B
:10180000D61990934E0180934D011092420110928F
:10181000440110924301109246011092450110922A
:1018200048011092470110924A011092490110920A
:101830004C0110924B01D2CF80914D0190914E01FD
:101840000E94E219883C910540F680914201E82F00
:10185000F0E0EE0FFF1FED5BFE4F118300838F5F03
:1018600080934201C0E0BACF0C9478080C947908B8
:1018700085B7806885BF85B7806885BFA1E2B1E084
:1018800061E070E08D91E82FE295EF70F0E041A10A
:101890008F709B0101C0220F8A95EAF7922F9095D5
:1018A000942391A382A1822B82A381E0A932B8075D
:1018B00049F7A3E1B1E061E070E08D91E82FE29596
:1018C000EF70F0E041A18F709B0101C0220F8A955B
:1018D000EAF7922F9095942391A382A1822B82A361
:1018E00081E0A132B80749F7E0E6F1E0A0E5B1E018
:1018F00080E791E0119211921D921D928E179F0721
:10190000C9F70C94CC094F925F927F928F929F926D
:10191000AF92BF92CF92DF92EF92FF920F931F93FD
:10192000CF93DF9300E511E091E2E92E91E0F92EEB
:10193000E801CC24C394D12C99249394A880B98035
:1019400019821882D7018D917D01E82FE295EF7001
:10195000F0E091A18F70960101C0220F8A95EAF7FD
:10196000892F822B81A382A1822E8094882182A339
:10197000B0EABA95F1F783E1482E81E0582E90E065
:1019800080E0D2017D912D01472F42954F7050E0AC
:10199000DA0190967C90488159817F70D60102C00F
:1019A000AA0FBB1F7A95E2F7BD01672109F057C066
:1019B000B601082E02C0660F771F0A94E2F7462B85
:1019C000572B5983488301968E309105D1F681A11A
:1019D000882281A282A1282B22A388819981A8161E
:1019E000B90641F0909270010E94D619909372014D
:1019F000809371012296B9E2EB16B1E0FB0609F083
:101A00009DCF809170018823B9F0809171019091F0
:101A100072010E94E219069778F0E0E6F1E080E6B4
:101A200091E0D8012D913D918D01219331938A1739
:101A30009B07B9F7109270010E94CE0981E0DF91F7
:101A4000CF911F910F91FF90EF90DF90CF90BF90BB
:101A5000AF909F908F907F905F904F90089570E02F
:101A600060E0ADCFE82FF0E0EE0FFF1FE05AFE4F31
:101A700080819181089508959093780180937701F2
:101A80000895E0917701F0917801309721F001906D
:101A9000F081E02D099480E00895E0917701F091C4
:101AA0007801309721F00280F381E02D09940895A8
:101AB000E0917701F0917801309721F00480F58171
:101AC000E02D099408952091750130917601281731
:101AD000390771F09093760180937501E091770159
:101AE000F0917801309721F00680F781E02D09947C
:101AF000089520917301309174012817390771F00E
:101B00009093740180937301E0917701F0917801D3
:101B1000309721F00084F185E02D0994089508950F
:101B20000C948F0D0E94CD190E94380C0C949E1AB3
:101B30005F926F927F928F929F92AF92BF92CF925D
:101B4000DF92EF92FF920F931F93CF93DF93CDB766
:101B5000DEB72A970FB6F894DEBF0FBECDBF0E9446
:101B6000830C9AE7A92E91E0B92E10E000E08824BA
:101B70008394912C502E802F0E94320D7C01F50110
:101B8000C190D1905F01C816D90609F45EC080915A
:101B9000360281FD0E943B0D90E080E0CE24DF24E0
:101BA0003401082E02C0660C771C0A94E2F79601F5
:101BB00026213721232B09F443C08E835F82E62040
:101BC000F72081E0EF2809F480E088870E94D61989
:101BD0008160782F9A8789874E815F8168858A85A1
:101BE0000E94520E000F111FF801E658FE4F80812F
:101BF000918168267926718260820E94211D0E944F
:101C0000410D909179018917B9F10E94410D80939E
:101C100079012A960FB6F894DEBF0FBECDBFDF91D3
:101C2000CF911F910F91FF90EF90DF90CF90BF90D9
:101C3000AF909F908F907F906F905F900C94D2099F
:101C400001968E30910509F0ABCF0F5F1F4F083022
:101C5000110509F08FCF8FEF89838A831B820E9441
:101C6000D6198160782F9D838C8349815A816B813D
:101C70008D810E94520EC1CF2A960FB6F894DEBF16
:101C80000FBECDBFDF91CF911F910F91FF90EF90CD
:101C9000DF90CF90BF90AF909F908F907F906F908C
:101CA0005F900895CF93DF93CDB7DEB72B970FB634
:101CB000F894DEBF0FBECDBF4F83588769877A8700
:101CC0008B871E821D8285E0FE013796DE0111960C
:101CD00001900D928A95E1F749815A816B817C814F
:101CE0008D819E812B960FB6F894DEBF0FBECDBFBF
:101CF000DF91CF910C94CF14882309F4D8C0823897
:101D000071F40E94410D81FDD2C089E30E94241824
:101D10000E94EC1889E30E9461180C94EC18833837
:101D200059F40E94410D80FDC2C083E50E94241831
:101D30000E94EC1883E5EFCF843859F40E94410DDE
:101D400082FDB5C087E40E9424180E94EC1887E445
:101D5000E2CF9CEF980F913A18F40E942418DDCF3F
:101D600090E2980F983050F4877091E001C0990F7D
:101D70008A95EAF7892F0E94A318CFCF9BE5980F89
:101D8000933070F4853A31F0863A39F083E890E088
:101D90000C94630D81E890E0FBCF82E890E0F8CFEF
:101DA00098E5980F953108F082C0883A09F440C050
:101DB000893A09F440C08A3A09F440C08B3A09F4E0
:101DC00040C08C3A09F440C08B3B09F440C08C3BC6
:101DD00009F440C08D3A09F440C0803B09F440C08A
:101DE0008E3A09F440C08F3A09F440C0813B09F4AF
:101DF00040C0823B09F440C0833B09F440C0843BAF
:101E000009F440C0853B09F440C0863B09F440C05A
:101E1000873B09F440C0883B09F440C0893B09F482
:101E200040C08A3B09F440C090E080E00C94790DFA
:101E300082EE90E0FBCF89EE90E0F8CF8AEE90E062
:101E4000F5CF85EB90E0F2CF86EB90E0EFCF83EB20
:101E500090E0ECCF84EB90E0E9CF87EB90E0E6CF29
:101E60008CEC90E0E3CF8DEC90E0E0CF83E891E064
:101E7000DDCF8AE891E0DACF82E991E0D7CF84E93B
:101E800091E0D4CF81E292E0D1CF83E292E0CECF55
:101E900084E292E0CBCF85E292E0C8CF86E292E086
:101EA000C5CF87E292E0C2CF8AE292E0BFCF089529
:101EB000882309F44BC0823871F40E94410D81FFE0
:101EC00045C089E30E9424180E94EC1889E30E940F
:101ED00061180C94EC18833859F40E94410D80FF6E
:101EE00035C083E50E9424180E94EC1883E5EFCFEB
:101EF000843859F40E94410D82FF28C087E40E9473
:101F000024180E94EC1887E4E2CF9CEF980F913AD6
:101F1000F0F290E2980F983050F4877091E001C091
:101F2000990F8A95EAF7892F0E94A918D2CF9BE5CD
:101F3000980F933020F490E080E00C94630D885A61
:101F4000853120F490E080E00C94790D0895882389
:101F500021F00E94A3180C94EC180895882321F016
:101F60000E94A9180C94EC1808958F929F92AF923A
:101F7000BF92DF92EF92FF920F931F93CF93DF9365
:101F80007C01D62FC72FFC01058102950F701281AD
:101F900011110E94C2180E941D18D82E882371F0BA
:101FA000112321F180E28D0F883000F182E00E9440
:101FB00007180E941D1891E0D82ED926EC2FE29523
:101FC000EF70F0E0EA51F04F0C94FD25F80FF80F98
:101FD000481048108A10A61025102510B1102510A1
:101FE00049114911BC1125102510C511D12CE6CF7E
:101FF0000C2F0F70C07F11F00295007F1123A9F004
:10200000002359F080E28D0F883010F0D11109C003
:10201000802F0E94A3180E94EC188D2F0E947C0E26
:1020200014C0802F0E94B418F6CF8D2F0E94580F35
:10203000002359F080E28D0F883010F0D11124C0B8
:10204000802F0E94A9180E94EC18DD2009F4A4C179
:102050000E94FA1780FDA0C1F70112820E94F417B6
:102060000E946E16C7010E94D8110E94F417DF91DA
:10207000CF911F910F91FF90EF90DF90BF90AF90A5
:102080009F908F900C948F16802F0E94BA18DBCFF0
:10209000FC2FFF70BF2EC07FC03219F0B29480EFCA
:1020A000B822DD2369F0D13029F1112369F1002331
:1020B00059F0F701858180FFB0CF8F70858304C010
:1020C000112361F0011104C08B2D0E94A70FBDCF19
:1020D0008B2D0130D1F70E94D618B7CF011106C061
:1020E0000E94D9188B2D0E94AE0FAFCF013009F49A
:1020F000ACCFF6CF112321F0063008F0A6CFE4CF05
:10210000053008F0A2CFEECF002361F38D2F0E949F
:10211000580F9BCF8C2F86958695837069F0813000
:1021200009F093CF8D2F9C2F9370111102C090E076
:1021300080E00E94790D89CF8D2F9C2F9370111113
:1021400002C090E080E00E94630D7FCF8D2F1123AD
:1021500029F00E942A1C0E94161D77CF0E94921C13
:10216000FACF8C2F837009F047C011116ECF2D2F3D
:10217000229526952770220F220F6D2F6F70862EC5
:10218000912CB12CA12C022E04C0880C991CAA1CE5
:10219000BB1C0A94D2F760E070E0CB01D4FF0FC003
:1021A0006FE070E080E090E004C0660F771F881F4A
:1021B000991F2A95D2F76095709580959095C69550
:1021C000C695C370C23051F080F4682979298A29F4
:1021D0009B29C13071F00E94171637CF68297929E1
:1021E0008A299B290E94331630CF0E941716C501F9
:1021F000B4010E94FB1529CF8695112311F08C2F75
:102200008170882309F421CF2D2F229526952770E0
:10221000220F220F6D2F6F70862E912CB12CA12CC6
:10222000022E04C0880C991CAA1CBB1C0A94D2F76D
:1022300060E070E0CB01D4FF0FC06FE070E080E0A1
:1022400090E004C0660F771F881F991F2A95D2F768
:102250006095709580959095C695C695C370C2306F
:1022600051F080F4682979298A299B29C13071F0BD
:102270000E94F116EACE682979298A299B290E94B1
:102280000D17E3CE0E94F116C501B4010E94D516C8
:10229000DCCEE0E2ED0FE53108F062C0F0E0ED5A8F
:1022A000FE4E0C94FD2568116811681168116811C3
:1022B0006811681168116811681168116811681156
:1022C000681168116811751183118A1191119B11A0
:1022D000DF708C2F8F71112321F00E946E168D2FCD
:1022E000F4CE0E948F168D2FFECE112341F00530C3
:1022F00008F0ABCE8C2F8F710E94B416A6CE06309C
:1023000008F0A3CEF7CF8C2F8F71112339F00E94E4
:102310006E169BCE8C2F8F711123C9F30E948F16DE
:1023200094CE112329F08C2F8F710E9459168DCED7
:102330000E944F168ACE112349F0CF718C2F0E9434
:102340006E1663E08C2F0E94FE177FCE81E00E9404
:102350000718023008F479CE82E00E94071875CE83
:10236000112329F0011159CE8C2F8F71D0CF01117B
:10237000CDCE8C2F8F71D2CF4C2F4F706D2FC701C8
:102380000E9475080E94781560CE4C2F4F706D2FFB
:10239000C7010E94D40959CEDF91CF911F910F91AF
:1023A000FF90EF90DF90BF90AF909F908F90089537
:1023B0000F931F93CF93DF93EC01988189812B8139
:1023C0003C81232B39F08F3F19F481E09F3F19F0B6
:1023D00080E001C081E080FD17C0CE010E948E0820
:1023E000882391F0688179818A810E94D0178C01BD
:1023F0000E9429170E94F015B801CE01DF91CF91FC
:102400001F910F910C94B50FDF91CF911F910F91F8
:1024100008950E94C2180E94D3180E9495180E9425
:10242000EC180E94C31D0E94161D90E080E00E94DF
:10243000630D90E080E00C94790D0E94B1180C942B
:1024400009120E94C617E92FE295EF70E250EE30B4
:10245000E0F4F0E0E25DFD4E0C94FD253C123C12F0
:102460004512451247124512451245123C123C12C4
:102470004C12451245124C12803F19F020F4803E58
:1024800020F481E00895843FE1F380E00895803EE8
:10249000C0F3813FD1F7F5CF93FB882780F90895EA
:1024A000CF93DF9300D000D01F92CDB7DEB70F904F
:1024B0000F900F900F900F90DF91CF910895CF93D1
:1024C000DF9300D000D000D0CDB7DEB726960FB690
:1024D000F894DEBF0FBECDBFDF91CF9108951F935B
:1024E000CF93DF93C0918B0116E080918C018C1308
:1024F00004C0DF91CF911F910895D0E01C9FF0019F
:102500001D9FF00D1124E357FE4F408151816281E0
:102510007381848195810E945F122196C770E5CFF7
:102520004091BD015091BE016091BF017091C00109
:102530008091C1019091C2010C945F121F93CF93BF
:10254000DF938091C201807FD1F48091BF01882305
:10255000B1F080918B01D0918C01B091BD01C091FF
:10256000BE014091C0015091C101A1E0BF3F09F0FF
:10257000A0E0BA016095709516E0D81304C0DF9111
:10258000CF911F91089521E04115510521F02A2F87
:10259000CF3F09F020E090E020FD38C0189FF00107
:1025A000199FF00D1124E357FE4F21812C132EC0EB
:1025B00020812B132BC02281211128C0238134813B
:1025C0002417350700F1241B350B283C3105F0F4A6
:1025D0002091C2012F7020612093C20126E0289F24
:1025E000F001299FF00D1124EE56FE4F80818F706F
:1025F000806180838DEB91E00E94D811DF91CF91B3
:102600001F910C946F12260F371FDFCF0196877032
:10261000B4CFAF92BF92CF92DF92EF92FF920F931F
:102620001F93CF93DF93CDB7DEB761970FB6F894C2
:10263000DEBF0FBECDBF8C0185E0F801DE011D9627
:1026400001900D928A95E1F7D8014C9111965C9119
:1026500011971296EC903091BD016091BE0180916E
:10266000C0019091C10121E0009731F06F3F19F452
:1026700021E03F3F09F020E0B22FB170BB2E20FDDA
:1026800080C1F801C380D480A090BF01AA2009F4C2
:1026900027C1C816D906D0F1D601A81BB90BCD01A8
:1026A000FF24F394883C910508F0F12C8091C2013D
:1026B000982F907FFF2009F4CAC0911187C0FE2C8B
:1026C000651329C0341327C0E11025C08F708061C5
:1026D0008093C2010E9490128DEB91E00E94D8116C
:1026E0008091C201F80185838F2D61960FB6F89411
:1026F000DEBF0FBECDBFDF91CF911F910F91FF9035
:10270000EF90DF90CF90BF90AF9008958095909517
:102710008C0D9D1DC5CF81E0CD2831F05F3F19F4B0
:1027200081E04F3F09F080E080FD24C081E08E25EC
:10273000F82FF170DF2E80FF3FC080918B01209138
:102740008C0136E0821318C04D875E878D859E858B
:102750000E94C617292F22952F70223008F12430AD
:1027600030F59F7009F1D80115969C91907FE1F4A6
:10277000FB2CBACF80E0DCCF90E0389FF001399F8E
:10278000F00D1124E357FE4F6181561306C060819E
:10279000461303C062816E110FC001968770D2CFBD
:1027A0009F7011F0882321F3805E883008F3C80100
:1027B0000E94D811BD2CDCCFEE2009F495CF80917A
:1027C000C20181608093C201F12C8ECF651312C0CB
:1027D000341310C0E1100EC0F8018583C8010E94B7
:1027E000D81186E0F801ADEBB1E001900D928A9529
:1027F000E1F741C04D875E878D859E850E9421123D
:10280000882309F4C8C0EE2009F4C5C08091C20134
:10281000803270F02091BD013091BE0138872F8346
:102820001986DB86CA868C87CE0107960E94D8114E
:1028300086E0F801ADEBB1E001900D928A95E1F7E9
:102840000E949E120E949012FF24F3944DCF91118A
:1028500015C07C2DD98AC88A6E2D89890E94501294
:102860008DEB91E00E94D81186E0EDEBF1E0DF0105
:102870001D928A95E9F70E94901236CF651312C017
:10288000341310C0E1100EC0F8018583C8010E9406
:10289000D811EDEBF1E086E0DF011D928A95E9F7B2
:1028A000FA2C22CF4D875E878D859E850E9421124E
:1028B000882309F470C0EE2009F46DC08091C20134
:1028C000803208F4B5CF2091BD013091BE013A832A
:1028D00029831B82DD82CC828E83CE010196A6CF16
:1028E000C816D90638F1F601E81BF90BCF01F12C17
:1028F000883C910508F03DC0FE2CEE2009F44BC049
:10290000651326C0341324C08091C20180FD17C016
:10291000982F907FA1F0D80115968C931597903F32
:1029200009F45CCF982F907F905F8F70892B15965C
:102930008C9354CF809590958C0D9D1DD8CF86E0BB
:10294000F801ADEBB1E001900D928A95E1F7CCCEA4
:102950004D875E878D859E850E942112811168CFEB
:102960008091C20181608093C201C8010E94D81188
:10297000BBCE7C2DD98AC88A6E2D89890E945012BF
:1029800073CFEE2041F04D875E878D859E850E9436
:10299000211281114DCFC8010E94D81155CF1F932C
:1029A000CF93DF93CDB7DEB72C970FB6F894DEBF89
:1029B0000FBECDBF4F83588769877A878B879C87E7
:1029C000CE0107960E940913882309F442C09F8113
:1029D00088852A853B85232B39F08F3F19F481E0C8
:1029E0009F3F19F080E001C081E080FD08C04F8169
:1029F000588569857A858B859C850E945F1216E0D3
:102A000080918B0190918C01891709F467C0819F97
:102A1000C001112483579E4F0E940913882309F493
:102A20005DC0E0918B011E9FF0011124E357FE4F22
:102A30004081518162817381848195810E945F12FE
:102A400080918B0190E001968770992780938B018C
:102A5000D7CF86E0FE013796DE01119601900D92E8
:102A60008A95E1F79F8188852A853B85232B39F05C
:102A70008F3F19F481E09F3F19F080E001C081E0B1
:102A800080FDBDCF20918C0130E0C9010196877097
:102A9000992740918B014817190699F096E0929F6B
:102AA000D001939FB00D1124A357BE4FFE01319664
:102AB00001900D929A95E1F780938C010E946F121C
:102AC0009ECF0E941D1210928C0110928B0186E005
:102AD000EDEBF1E0DF011D928A95E9F72C960FB638
:102AE000F894DEBF0FBECDBFDF91CF911F91089547
:102AF000EF92FF920F931F93CF93DF938C01892B5B
:102B000081F0F12CEE24E394E8012196F801849100
:102B1000843770F4843008F05FC08130B1F08230C7
:102B2000A1F1DF91CF911F910F91FF90EF90089548
:102B3000853709F44CC008F43DC09CE7980F9037E6
:102B400080F78F770E94580F49C00E5F1F4FFE011C
:102B5000849190E2980F983060F48770FE2D01C048
:102B6000FF0F8A95EAF78F2F0E94C5180E94EC1874
:102B700002C00E947C0E8F2D815030F2EFE9FFE001
:102B80003197F1F700C00000F7CF0E5F1F4FFE0135
:102B9000849190E2980F983050F48770FE2D01C018
:102BA000FF0F8A95EAF78F2F0E94CB18DFCF0E9484
:102BB000580FE1CF0E5F1F4FFE01C491C150D8F2F4
:102BC0008FE99FE00197F1F700C00000F7CF0E5F9B
:102BD0001F4FFE01F490CFCF0E947C0E8E01CBCF11
:102BE000089560930D0270930E0280930F029093EC
:102BF00010020C9409120F931F9300910D02109173
:102C00000E0220910F0230911002DC01CB01802BCB
:102C1000912BA22BB32B80930D0290930E02A093C5
:102C20000F02B09310021F910F910C9409120F9391
:102C30001F9300910D0210910E0220910F0230910E
:102C40001002DC01CB0180239123A223B3238093C4
:102C50000D0290930E02A0930F02B09310021F91E9
:102C60000F910C9409120F931F9300910D02109174
:102C70000E0220910F0230911002DC01CB0180275F
:102C80009127A227B32780930D0290930E02A09361
:102C90000F02B09310021F910F910C940912109221
:102CA000090210920A0210920B0210920C020C946C
:102CB000091241E050E060E070E004C0440F551F8D
:102CC000661F771F8A95D2F74093090250930A0234
:102CD00060930B0270930C020C94091241E050E0D7
:102CE00060E070E004C0440F551F661F771F8A958F
:102CF000D2F78091090290910A02A0910B02B09143
:102D00000C02842B952BA62BB72B80930902909352
:102D10000A02A0930B02B0930C020C94091241E03A
:102D200050E060E070E004C0440F551F661F771F3D
:102D30008A95D2F7409550956095709580910902DB
:102D400090910A02A0910B02B0910C02842395236A
:102D5000A623B7238093090290930A02A0930B0243
:102D6000B0930C020C94091241E050E060E070E076
:102D700004C0440F551F661F771F8A95D2F78091B4
:102D8000090290910A02A0910B02B0910C028427D3
:102D90009527A627B7278093090290930A02A0934C
:102DA0000B02B0930C020C9409120F931F93009125
:102DB000090210910A0220910B0230910C02DC01F1
:102DC000CB01802B912BA22BB32B809309029093E4
:102DD0000A02A0930B02B0930C021F910F910C9466
:102DE00009120F931F930091090210910A0220917A
:102DF0000B0230910C02DC01CB0180239123A22332
:102E0000B3238093090290930A02A0930B02B0931C
:102E10000C021F910F910C9409120F931F930091B4
:102E2000090210910A0220910B0230910C02DC0180
:102E3000CB0180279127A227B32780930902909383
:102E40000A02A0930B02B0930C021F910F910C94F5
:102E5000091208952EE0929F800D1124982F9770EB
:102E600071E001C0770F9A95EAF786958695869569
:102E700025E0829FC001112450E040E0A62FB0E081
:102E8000FC01E40FF51FED53FE4F60819D01042E00
:102E900002C0369527950A94E2F7217021952627DE
:102EA0002723262720834F5F5F4F4530510541F789
:102EB00008952EE0929F800D1124982F977086958B
:102EC0008695869525E0829FA001112470E060E040
:102ED00080E0FA01E60FF71FED53FE4F208130E04E
:102EE000092E02C0369527950A94E2F72170332700
:102EF000062E01C0220F0A94EAF7822B6F5F7F4FE4
:102F00006530710531F70895BF92CF92DF92EF924D
:102F1000FF920F931F93CF93DF938C01C090090210
:102F2000D0900A02E0900B02F0900C0280910D020A
:102F300090910E02A0910F02B0911002C82AD92AD6
:102F4000EA2AFB2ACFE1D0E0BC2ED701C6010C2E25
:102F500004C0B695A795979587950A94D2F780FDFA
:102F60000EC0219788F7B12C8B2DDF91CF911F9147
:102F70000F91FF90EF90DF90CF90BF900895B80130
:102F80008C2F0E94F109019761F3EECFCF93DF936D
:102F9000EC010E948417BE01DF91CF910C94F109DE
:102FA0001F93CF93DF93EB0190918A01992331F026
:102FB000CB01DF91CF911F910C94C617882379F034
:102FC000CB010E948417182F682FCE010E942A1768
:102FD000BE01812FDF91CF911F910C94F109CB019C
:102FE0000E945917182FF4CF80911102859585956D
:102FF00085950895809111028770089598E0899FC2
:1030000090011124622B609311020C946E16909122
:1030100011028095892380931102282F277061F473
:10302000282F082E000C330B9217130629F08595D4
:10303000859585950C948F1608959091110297703F
:1030400081E009F480E00895909112019923E1F064
:103050009091670297FF18C0E82FE695E695E695F0
:10306000EF3139F12091000130910101E20FF32F8E
:10307000F11D877021E030E001C0220F8A95EAF748
:103080008181822B8183089520910001309101017B
:10309000F90132969FEF40E05191851751F09F3F23
:1030A00019F4511101C0942F4F5F4E31A9F79F3F82
:1030B00009F40895290F311D97FD3A95F90182838E
:1030C0000895909112019923F1F09091670297FF72
:1030D0001AC0E82FE695E695E695EF3129F12091A3
:1030E000000130910101E20FF32FF11D282F27700D
:1030F00081E090E001C0880F2A95EAF780959181E0
:103100008923818308952091000130910101F90103
:103110003296205E3F4F9191891303C0DF011197D2
:103120001C92E217F307B9F7089581E090E0E0916F
:103130000001F0910101E80FF91F10820196803221
:103140009105A9F7089590913502892B8093350256
:103150000895982F909580913502892380933502A8
:10316000089510923502089590913402892B80932E
:1031700034020895982F909580913402892380938A
:103180003402089510923402089590913302892BED
:10319000809333020895982F90958091330289236C
:1031A000809333020895109233020895809312029F
:1031B00008951092120208952091000130910101AA
:1031C000F9013196205E3F4F80E0919191118F5F20
:1031D000E217F307D1F70895E0910001F0910101A2
:1031E000809135028083E0910001F091010180819E
:1031F00090913402892B8083E0910001F0910101CC
:10320000808190913302892B8083909112029923BF
:1032100061F0E0910001F09101018081892B8083B0
:103220000E94DC188111109212028091000190918D
:1032300001010C944D0D6DEE7EEF90E080E00E9458
:10324000372660E082E090E00E94252660E083E07F
:1032500090E00E94252660E084E090E00E94252610
:1032600060E085E090E00C94252690E080E00E94EC
:103270001F2621E08D3E9E4F09F020E0822F089509
:1032800082E090E00C941726682F82E090E00C9486
:10329000252683E090E00C941726682F83E090E0C9
:1032A0000C94252684E090E00C941726682F84E087
:1032B00090E00C94252680916D02843039F11092B3
:1032C000370288E190E020E40FB6F894A895809347
:1032D00060000FBE2093600080E00E94D20983B797
:1032E000817F846083BF83B7816083BF7894889532
:1032F00083B78E7F83BF0FB6F894A8958091600046
:10330000886180936000109260000FBE0895089558
:103310000895CF930E9487190E94830C0E948819F8
:10332000C0E08C2F0E94320D892B31F4CF5FC83062
:10333000C1F780E0CF91089581E0FCCF0E941D127B
:103340000E94410D0C94D2091F920F920FB60F925A
:1033500011248F939F93AF93BF9380913702811174
:1033600013C08091630290916402A0916502B091B4
:1033700066024196A11DB11D809363029093640281
:10338000A0936502B0936602BF91AF919F918F9118
:103390000F900FBE0F901F90189582E084BD93E0B0
:1033A00095BD9AEF97BD80936E0008952FB7F8945E
:1033B0008091630290916402A0916502B0916602CF
:1033C0002FBF0895CF92DF92EF92FF920F931F933A
:1033D0002FB7F894409163025091640260916502A6
:1033E000709166022FBF6A017B01EE24FF248C01DD
:1033F00030E020E0C016D106E206F30650F0481B8C
:10340000590BCA011F910F91FF90EF90DF90CF9061
:10341000089541505109F3CF1F920F920FB60F92AA
:1034200011248F939F93AF93BF93809163029091E8
:103430006402A0916502B09166020196A11DB11DC2
:103440008093630290936402A0936502B093660236
:10345000BF91AF919F918F910F900FBE0F901F90D2
:1034600018950E94BD21F8942FEF87EA91E621502C
:1034700080409040E1F700C0000087E090EBDC0165
:103480008093760290937702A0937802B0937902AA
:1034900088E19CE00FB6F894A895809360000FBE79
:1034A00090936000FFCFAF92BF92CF92DF92EF92E6
:1034B000FF920F931F93CF93C0E0CC24C394D12CE1
:1034C000E82EF12C8C2F0E94320D5C0110E000E000
:1034D000C601002E02C0880F991F0A94E2F78A21C4
:1034E0009B21892B99F40F5F1F4F0E30110581F737
:1034F000CF5FC83039F780E0CF911F910F91FF90D7
:10350000EF90DF90CF90BF90AF900895602F7C2F09
:1035100080E00E94D509E816F90629F781E0ECCF92
:10352000CF93C82F8CE20E94531A882321F08C2F4E
:10353000CF910C94531A80E0CF910895CF930E94BD
:103540003519811102C00E941B19C5E608C00E94EE
:10355000830C8FE39CE90197F1F700C00000C15094
:10356000B1F789E20E94901A8111EFC08AE20E94AD
:10357000901A81110E941B1985E00E94901A8111F6
:103580000E94311A0E9440198093360287E00E94FF
:10359000901A882371F08BE10E94901A882309F415
:1035A000B1C090913602892F8D7F91FF8260809308
:1035B0003602809136020E9444190E94521990E00E
:1035C000909368028093670280EE0E94901A88238D
:1035D00041F090916702892F8E7F90FF81608093E8
:1035E000670289E30E94901A882341F09091670254
:1035F000892F8D7F91FF82608093670282EE0E9407
:10360000901A882341F090916702892F8B7F92FF57
:1036100084608093670286EE0E94901A882341F0AE
:1036200090916702892F877F93FF8860809367025C
:1036300083EE0E94901A882341F090916702892FAF
:103640008F7E94FF80618093670285E30E94901AC9
:10365000882341F090916702892F8F7D95FF8062CA
:103660008093670281E30E94901A882341F0909131
:103670006702892F8F7B96FF80648093670281E1C8
:103680000E94901A882341F090916702892F97FB3E
:1036900087F9805880936702809167020E945619CB
:1036A00087E20E94901AC82F8EE10E94901A811121
:1036B000C2608FE10E94901A8111C46080E20E9472
:1036C000901A8111C86081E20E94901A8111C06134
:1036D00082E20E94901A8111C06283E20E94901AD5
:1036E0008111C06484E20E94901A882341F1C0686D
:1036F0008C2F0E944D196C2F70E090E080E0CF91EC
:103700000C94F1158EE00E94901A882339F0909164
:103710003602892F8B7F92FF846049CF80E10E941F
:10372000901A90913602882329F0892F877F93FF82
:1037300088603DCF892F8E7F90FF816038CFC11187
:10374000D7CF0E944919682FD7CFCF910895809184
:103750003A0280FF12C06091050185E0689FB001C8
:103760001124759567957595679560387105A8F56D
:1037700061157105A1F1862F089581FF09C060913F
:10378000050185E0689FB001112475956795EDCF1F
:1037900082FF07C06091050185E0689FB001112498
:1037A000E4CF20913B022223A9F090910401609183
:1037B000050185E0689FB00111242917B0F6269F06
:1037C000A001279F500D1124692F70E0CA010E94AB
:1037D000E925CBCF65E070E0CECF8FE7089581E09B
:1037E000089580913A0280FF0CC06091030170E05F
:1037F00075956795759567956115710549F1862FE2
:10380000089581FF06C06091030170E0759567958A
:10381000F3CF6091030182FD0BC090913B0299238D
:10382000A1F06091020180910301961738F0682F92
:1038300070E06038710500F38FE70895899FC0013B
:10384000112470E00E94E925F4CF61E070E0D7CF49
:1038500081E00895803F31F40E94A71B81958093F9
:103860003E020895813F19F40E94A71BF8CF823FC2
:1038700031F40E94A71B819580933D020895833FF8
:1038800019F40E94A71BF8CF893F29F40E94F11B6D
:1038900080933F0208958A3F21F40E94F11B819595
:1038A000F7CF8B3F31F40E94F11B8195809340024A
:1038B00008958C3F19F40E94F11BF8CF843F31F436
:1038C00080913C02816080933C020895853F21F401
:1038D00080913C028260F7CF863F21F480913C02C8
:1038E0008460F1CF873F21F480913C028860EBCF68
:1038F000883F21F480913C028061E5CF8D3F31F417
:1039000080913A02816080933A0208958E3F21F4BB
:1039100080913A028260F7CF8F3FB9F780913A02E7
:103920008460F1CF803FC1F480913E0287FD109208
:103930003E0280913D0281110EC080913E028111B4
:103940000AC080913F02811106C08091400281111E
:1039500002C010923B020895813F29F480913E02FB
:1039600018162CF3E6CF90913D02823F29F497FF81
:10397000E0CF10923D02DDCF833F19F41916CCF34E
:10398000D8CF893F39F480913F02181694F61092EF
:103990003F02CFCF8A3F29F480913F0287FFC9CFF2
:1039A000F6CF8B3F39F48091400287FFC2CF10924F
:1039B0004002BFCF8C3F29F4809140021816BCF31F
:1039C000B8CF843F31F480913C028E7F80933C02DB
:1039D000B0CF853F21F480913C028D7FF7CF863FA9
:1039E00021F480913C028B7FF1CF873F21F48091BD
:1039F0003C02877FEBCF883F21F480913C028F7E91
:103A0000E5CF8D3F31F480913A028E7F80933A0268
:103A100090CF8E3F21F480913A028D7FF7CF8F3F78
:103A200009F087CF80913A028B7FF0CF8CE392E050
:103A30000E94580D0E94D619909339028093380243
:103A400008951F93CF93DF938091380290913902AC
:103A50000E94E219AC0190913B022091060130E0F6
:103A6000911106C0209107018AE0289F900111243E
:103A70004217530780F080913D02C0913E021091A1
:103A80003F02D091400281110AC0C11178C01111CA
:103A900076C0D11174C0DF91CF911F9108959F3FDF
:103AA00019F09F5F90933B02181624F40E94A71B05
:103AB00080933D0280913D0287FF05C00E94A71BB5
:103AC000819580933D021C1624F40E94A71B8093CD
:103AD0003E0280913E0287FF05C00E94A71B819590
:103AE00080933E0260913D02662331F1C0913E0217
:103AF000CC2311F1062E000C770B880B990B0E943A
:103B0000F02423E333E343E35FE30E9454250E9460
:103B1000B82460933D026C2FCC0F770B880B990B68
:103B20000E94F02423E333E343E35FE30E94542540
:103B30000E94B82460933E02111624F40E94F11BE7
:103B400080933F0280913F0287FF05C00E94F11BD6
:103B5000819580933F021D1624F40E94F11B8093EF
:103B600040028091400287FF05C00E94F11B8195B1
:103B700080934002DF91CF911F910C94161D9F3FBF
:103B800009F08FCFA0CF85E0ECE3F2E0DF011D92DA
:103B90008A95E9F710923B0210923A0208958091BB
:103BA00061020895CF93DF9300D01F92CDB7DEB7A7
:103BB0009C0180916D02843019F593E099833B83D9
:103BC0002A839093E9008FEF9091E800815095FD52
:103BD00006C095ED9A95F1F700008111F5CF80911F
:103BE000E80085FF0DC050E040E063E070E0CE01EA
:103BF00001960E942D208091E8008E778093E80046
:103C00000F900F900F90DF91CF910895CF93DF9396
:103C100000D01F92CDB7DEB720916D02243031F570
:103C200022E02983805891099B838A8383E08093D3
:103C3000E9008FEF9091E800815095FD06C095ED69
:103C40009A95F1F700008111F5CF8091E80085FF8A
:103C50000DC050E040E063E070E0CE0101960E94AC
:103C60002D208091E8008E778093E8000F900F90D0
:103C70000F90DF91CF9108959C0180916D02843067
:103C8000F9F482E08093E9009FEF8091E800915081
:103C900085FD06C085ED8A95F1F700009111F5CFFD
:103CA0008091E80085FF0CC050E040E065E070E0E6
:103CB000C9010E942D208091E8008E778093E80052
:103CC0000895CF93DF93EC0180916D028430F1F47D
:103CD000909112019923E9F09091670297FF19C022
:103CE0008093E9008FEF9091E800815095FD06C028
:103CF00095E19A95F1F700008111F5CF8091E800E8
:103D000050E040E060E270E085FD1AC0DF91CF91A5
:103D1000089581E08093E9008FEF9091E800815051
:103D200095FD06C095ED9A95F1F700008111F5CF4C
:103D30008091E80085FFEACF50E040E068E070E065
:103D4000CE010E942D208091E8008E778093E800BC
:103D500080E2FE01A1E4B2E001900D928A95E1F7C4
:103D6000D5CF80916C02811109C00E94BD210E94B3
:103D70001A228091E20084608093E20008951092FC
:103D80006C020895089508950C949E1942E061EC28
:103D900081E00E943B2142E061EC82E00E943B21F5
:103DA00042E061EC83E00E943B2142E261EC84E06E
:103DB0000C943B2180916F02833009F455C030F49C
:103DC000813071F1823009F491C008958A3009F48C
:103DD0007DC08B3009F463C0893009F044C0809104
:103DE0006E02813209F03FC080917202909173029D
:103DF000009711F00397B9F58091E800877F8093D1
:103E0000E8008091E80082FF2AC08091F100809351
:103E100061028091E8008B778093E8000C946F2119
:103E200080916E02813AF9F48091E800877F809357
:103E3000E8008091720290917302892B61F460E234
:103E400081E492E070E00E947C208091E8008B7712
:103E50008093E800089560E090E080E0F3CF8091E7
:103E60006D028111CECF089580916E02813AD9F70B
:103E70008091720290917302892BA9F78091E800DA
:103E8000877F8093E8008091E80080FFFCCF8091DD
:103E900012018093F1008091E8008E77BDCF809170
:103EA0006E02813201F78091720290917302892B28
:103EB000D1F68091E800877F8093E8000E946F210F
:103EC00080917002809312010C941D1280916E02F9
:103ED000813249F68091E800877F8093E8000E9454
:103EE0006F218091710280936202089580916E0229
:103EF000813A09F0B8CF8091E800877F8093E8008D
:103F00008091E80080FFFCCF80916202C2CF84B72D
:103F1000877F84BF0FB6F894A89580916000886170
:103F200080936000109260000FBE80E88093610073
:103F3000109261000E94900D0E94BD210E941A22E1
:103F40008091E20084608093E20078940E949C2437
:103F50000E94920D88E091E00E943C0D80916D02DC
:103F6000853019F00E94980DF9CF0E945B1980915D
:103F70006B02882399F30E948919882379F30E94A0
:103F80001720ECCF292F33272330310579F158F44E
:103F900021303105F1F02230310519F190E080E057
:103FA00030E020E01AC02132310599F1223231058A
:103FB000A9F7643098F770E0FB01EE0FFF1FE35D97
:103FC000FE4F20813181675D7E4FFB01808190E053
:103FD00004C082E190E029E43FE0FA0131832083CC
:103FE00008958DE690E02CED3EE0F7CF99278130E3
:103FF000910561F028F0029789F6ECEAFEE002C034
:10400000E8EDFEE0849190E09F01E7CFE0ECFEE078
:10401000F9CF643008F0C2CFE62FF0E0EE0FFF1FBB
:10402000EB5CFE4F2081318189E090E0D6CF80E1CA
:1040300089BD82E189BD09B400FEFDCF8091D80021
:104040008F7D8093D8008091E00082608093E000B3
:104050008091E00081FDFCCF0895AF92BF92CF9296
:10406000DF92FF920F931F93CF93DF936C01EB01CD
:104070008A010E948E21F82E811123C0011511059D
:1040800039F0F80180819181C81BD90BC80ED91E67
:10409000B12CA12C2097A9F08091E80085FD22C0C9
:1040A0008091E8008E778093E80001151105A1F05A
:1040B000F80180819181A80EB91EB182A08285E0AD
:1040C000F82E8F2DDF91CF911F910F91FF90DF90F0
:1040D000CF90BF90AF9008950E948E218823D1F297
:1040E000F82EEFCFF60181916F018093F1002197B7
:1040F000FFEFAF1ABF0ACECFFC01809174029091FE
:10410000750286179707A0F06115710529F4909143
:10411000E8009E779093E80090E06115710551F4F6
:10412000911108C08091E80082FF35C080E00895B9
:10413000BC01F2CF80916D028823C9F18530C9F1AD
:104140008091E80083FD31C08091E80082FDEACFD4
:104150008091E80080FFE1CF2091F3008091F20090
:10416000322F282F6115710519F02830310558F0CC
:1041700091E02830310509F090E02091E8002E7799
:104180002093E800CACF81918093F10061507109BA
:104190002F5F3F4FE7CF80916D02882341F085303C
:1041A00041F08091E80083FFBDCF81E0089582E077
:1041B000089583E00895FC01809174029091750246
:1041C00086179707A0F06115710529F48091E80022
:1041D0008E778093E80090E06115710551F491119C
:1041E00008C08091E80082FF36C080E00895BC01DD
:1041F000F2CF80916D028823D1F18530D1F1809189
:10420000E80083FD32C08091E80082FDEACF809112
:10421000E80080FFE1CF2091F3008091F200322F7F
:10422000282F6115710519F02830310558F091E0FB
:104230002830310509F090E08091E8008E77809376
:10424000E800CACF84918093F100319661507109E2
:104250002F5F3F4FE6CF80916D02882341F085307C
:1042600041F08091E80083FFBCCF81E0089582E0B7
:10427000089583E00895982F973028F08F708093E9
:10428000E90081E008959093E900242F762F50E013
:10429000981731F07091EC002091ED005091F000F2
:1042A00021FD02C09F5FE8CF3091EB003E7F30934D
:1042B000EB003091ED003D7F3093ED003091EB004D
:1042C00031603093EB007093EC002093ED0050933D
:1042D000F0002091EE0027FDE5CF80E00895809169
:1042E0006E0287FF13C08091E80082FF06C08091B4
:1042F000E8008B778093E80004C080916D02811103
:10430000F2CF089580916D028823D9F38091E8005F
:1043100080FFF8CF8091E8008E77ECCF2091E40009
:104320003091E50085E69091EC0090FF06C09091F9
:10433000E80090FF06C080E008959091E80092FDAB
:10434000FACF90916D02992391F0953091F0909170
:10435000EB0095FD10C04091E4005091E50024175A
:10436000350709F381509A01F1F684E0089582E05F
:10437000089583E0089581E008950E942B220E9411
:104380003322E0EEF0E0808181608083E8EDF0E0B0
:1043900080818F77808319BCA7EDB0E08C918E7FF0
:1043A0008C9380818F7E808310926C0208950F938E
:1043B0001F93CF93DF930E942B220E943322C8EDDC
:1043C000D0E088818F77888388818068888388811E
:1043D0008F7D888319BC10926D0210926902109231
:1043E0006B0210926A0200EE10E0F80180818B7F70
:1043F000808388818160888342E060E080E00E9461
:104400003B21E1EEF0E080818E7F8083E2EEF0E000
:10441000808181608083808188608083F8018081D1
:104420008E7F8083888180618883DF91CF911F9107
:104430000F910895E8EDF0E080818F7E8083E7EDB5
:10444000F0E080818160808384E082BF81E080939E
:104450006C020C94D721E8EDF0E080818E7F8083A0
:104460001092E20008951092DA001092E10008958F
:104470001F920F920FB60F9211242F933F934F93D9
:104480005F936F937F938F939F93AF93BF93EF93BC
:10449000FF938091E10082FF0BC08091E20082FFD8
:1044A00007C08091E1008B7F8093E1000E949B24F4
:1044B0008091DA0080FF19C08091D80080FF15C07C
:1044C0008091DA008E7F8093DA008091D90080FF9E
:1044D00094C080E189BD82E189BD09B400FEFDCFB1
:1044E00081E080936D020E94B11E8091E10080FF07
:1044F00019C08091E20080FF15C08091E2008E7F9C
:104500008093E2008091E20080618093E2008091DC
:10451000D80080628093D80019BC85E080936D023A
:104520000E94C31E8091E10084FF29C08091E200B7
:1045300084FF25C080E189BD82E189BD09B400FE08
:10454000FDCF8091D8008F7D8093D8008091E100CD
:104550008F7E8093E1008091E2008F7E8093E20065
:104560008091E20081608093E2008091690288235B
:1045700009F449C084E080936D020E94C41E8091BA
:10458000E10083FF29C08091E20083FF25C0809174
:10459000E100877F8093E10082E080936D021092BA
:1045A00069028091E1008E7F8093E1008091E200BA
:1045B0008E7F8093E2008091E20080618093E20030
:1045C00042E060E080E00E943B218091F000886042
:1045D0008093F0000E94C21EFF91EF91BF91AF91B6
:1045E0009F918F917F916F915F914F913F912F910B
:1045F0000F900FBE0F901F90189519BC10926D026E
:104600000E94BF1E72CF8091E30087FD02C081E04F
:10461000B2CF83E0B0CF1F920F920FB60F9211244A
:104620002F933F934F935F936F937F938F939F93BA
:10463000AF93BF93CF93EF93FF93C091E900CF70F7
:104640008091EC001092E9008091F000877F8093C8
:10465000F00078940E9447231092E9008091F000C6
:1046600088608093F000C093E900FF91EF91CF91B3
:10467000BF91AF919F918F917F916F915F914F917A
:104680003F912F910F900FBE0F901F9018951F9381
:10469000CF93DF93CDB7DEB7AA970FB6F894DEBFFE
:1046A0000FBECDBFEEE6F2E08091F100819322E0F3
:1046B000E637F207C9F70E94DA1E8091E80083FF0F
:1046C00042C080916E0290916F029A3008F03BC018
:1046D000E92FF0E0E259FC4D0C94FD2578239C2352
:1046E000A3239C23A323F7231924A3236E247B2431
:1046F000803879F0823839F5809172028F7080931A
:10470000E9008091EB0085FB882780F91092E90091
:1047100006C080916A0290916B0291118260909123
:10472000E800977F9093E8008093F1001092F100E9
:104730008091E8008E772DC0282F2D7F21F48823CB
:10474000D1F0823059F18091E80083FF0AC0809156
:10475000E800877F8093E8008091EB00806280937F
:10476000EB00AA960FB6F894DEBF0FBECDBFDF9167
:10477000CF911F91089580917002813021F793307D
:1047800009F080E080936B021092E9008091E800CC
:10479000877F8093E8000E946F21D5CF80917002BF
:1047A0008111F2CF809172028F7069F28093E900DB
:1047B0002091EB0020FFE8CF933031F48091EB00A3
:1047C00080628093EB00E0CF9091EB00906190933A
:1047D000EB0021E030E001C0220F8A95EAF7209338
:1047E000EA001092EA008091EB008860EACF811124
:1047F000AACF109170021F778091E3008078812BFF
:104800008093E3008091E800877F8093E8000E9416
:104810006F218091E80080FFFCCF8091E3008068E9
:104820008093E30083E0111101C082E080936D0268
:104830008ACF8058823008F086CF809170029091A4
:1048400071028C3D23E09207A1F583E08A838AE21E
:1048500089834FB7F894DE01139620E03EE051E2E1
:10486000E32FF0E050935700E49120FF03C0E2955E
:10487000EF703F5FEF708E2F90E0EA30C0F0C79688
:104880008D939D932F5F243159F74FBF8091E8009E
:10489000877F8093E8006AE270E0CE0101960E9473
:1048A0007C208091E8008B778093E8004CCFC09605
:1048B000E7CFAE014F5F5F4F609172020E94C21F4F
:1048C000BC01892B09F43FCF9091E800977F90932A
:1048D000E80089819A810E94DB20E3CF803809F0CB
:1048E00032CF8091E800877F8093E8008091690251
:1048F0008093F1001DCF811126CF909170029230EC
:1049000008F021CF8091E800877F8093E8009093A2
:1049100069020E946F2180916902882331F084E04E
:1049200080936D020E94C61E0ECF8091E30087FD2A
:10493000F6CF81E0F5CF0895CF9380916D02882363
:1049400099F0C091E900CF708091EC0080FD0EC01D
:1049500080E0C82B1092E9008091E80083FD0E945E
:104960004723CF70C093E900CF91089580E8F1CF3D
:104970000E94BF246894B1110C944E2508950E94A2
:10498000332588F09F5798F0B92F9927B751B0F089
:10499000E1F0660F771F881F991F1AF0BA95C9F7C3
:1049A00014C0B13091F00E944D25B1E008950C94EF
:1049B0004D25672F782F8827B85F39F0B93FCCF3A2
:1049C000869577956795B395D9F73EF49095809540
:1049D000709561957F4F8F4F9F4F0895E89409C060
:1049E00097FB3EF490958095709561957F4F8F4F22
:1049F0009F4F9923A9F0F92F96E9BB279395F69538
:104A0000879577956795B795F111F8CFFAF4BB0FB5
:104A100011F460FF1BC06F5F7F4F8F4F9F4F16C019
:104A2000882311F096E911C0772321F09EE8872FA3
:104A3000762F05C0662371F096E8862F70E060E05F
:104A40002AF09A95660F771F881FDAF7880F9695D8
:104A5000879597F9089557FD9058440F551F59F0C1
:104A60005F3F71F04795880F97FB991F61F09F3F5B
:104A700079F087950895121613061406551FF2CF84
:104A80004695F1DF08C0161617061806991FF1CFD4
:104A900086957105610508940895E894BB276627FB
:104AA0007727CB0197F908950E9467250C94D825A4
:104AB0000E94CA2538F00E94D12520F0952311F0DC
:104AC0000C94C1250C94C72511240C944E250E94EA
:104AD0002B2570F3959FC1F3950F50E0551F629FF2
:104AE000F001729FBB27F00DB11D639FAA27F00D47
:104AF000B11DAA1F649F6627B00DA11D661F829F6E
:104B00002227B00DA11D621F739FB00DA11D621F52
:104B1000839FA00D611D221F749F3327A00D611D6F
:104B2000231F849F600D211D822F762F6A2F112451
:104B30009F5750409AF0F1F088234AF0EE0FFF1F84
:104B4000BB1F661F771F881F91505040A9F79E3FDB
:104B5000510580F00C94C1250C944E255F3FE4F381
:104B6000983ED4F3869577956795B795F795E79531
:104B70009F5FC1F7FE2B880F911D9695879597F93A
:104B8000089597F99F6780E870E060E008959FEFCF
:104B900080EC089500240A941616170618060906D4
:104BA000089500240A9412161306140605060895A3
:104BB000092E0394000C11F4882352F0BB0F40F42B
:104BC000BF2B11F460FF04C06F5F7F4F8F4F9F4F6B
:104BD000089597FB072E16F4009407D077FD09D0AF
:104BE0000E94032607FC05D03EF4909581959F4FC7
:104BF0000895709561957F4F0895EE0FFF1F059002
:104C0000F491E02D0994AA1BBB1B51E107C0AA1F18
:104C1000BB1FA617B70710F0A61BB70B881F991F5D
:104C20005A95A9F780959095BC01CD010895F99901
:104C3000FECF92BD81BDF89A992780B50895A8E16D
:104C4000B0E042E050E00C943F26262FF999FECFC9
:104C500092BD81BDF89A019700B4021639F01FBACF
:104C600020BD0FB6F894FA9AF99A0FBE08950196EE
:104C7000272F0E9426260C942526DC01CB01FC015F
:104C8000F999FECF06C0F2BDE1BDF89A319600B4A5
:0E4C90000D9241505040B8F70895F894FFCFB0
:104C9E0013022808140A321ECF1D611E3C1E061E6A
:104CAE00D21D01F6F7363534979694956766939232
:104CBE0091F5F4F1F030313233404D36391710CAD8
:0E4CCE000F940F5B0FEE0E070F200F390F0033
:00000001FF
